:020000040800F2
:10000000FCFF002069230000612300006123000041
:1000100061230000612300006123000061230000D0
:1000200061230000612300006123000061230000C0
:1000300061230000612300006123000061230000B0
:1000400061230000612300006123000061230000A0
:100050006123000061230000612300006123000090
:100060006123000061230000612300006123000080
:100070006123000061230000612300006123000070
:100080006123000061230000612300006123000060
:100090006123000061230000612300006123000050
:1000A0006123000061230000612300006123000040
:1000B0006123000061230000612300006123000030
:1000C0006123000061230000612300006123000020
:1000D0006123000061230000612300006123000010
:1000E0006123000061230000612300006123000000
:1000F00061230000612300006123000061230000F0
:1001000061230000612300006123000061230000DF
:1001100061230000612300006123000061230000CF
:1001200061230000612300006123000061230000BF
:1001300061230000612300006123000061230000AF
:10014000612300006123000061230000612300009F
:1001500081B000F214010A6800F21801096809046C
:1001600042EA0101084601B07047FFFF81B000F28A
:1001700018010A68C2F3400181F00101C9B2C8B296
:1001800001B0704701480068704700BF9C01002023
:1001900083B0CDF800E000F0FF031A09104603F029
:1001A0000F02134614E0194A02921FE0184A029205
:1001B0001CE0184A029219E0174A029216E0174A08
:1001C000029213E0164A029210E0164A02920DE0E3
:1001D0000028E8D00128E9D00228EAD00328EBD093
:1001E0000428ECD00528EDD00628EED0012212B26A
:1001F0009A40ADF8042002980A46BDF8041000F0B9
:100200002BFEDDF800E003B0704700BF000801409E
:10021000000C014000100140001401400018014092
:10022000001C01400020014081B0CDF800E04FF0FB
:1002300000021949884207D118490B6818490A6811
:1002400018490A601C460BE01749884207D1174934
:100250000B6817490A6813490A601C4600E01446F7
:1002600014490C6003461846FFF780FF70B9114926
:10027000096851B12CB905200A4C2468A047002018
:1002800005E0611E08460446FFE7ECE70120DDF8C3
:1002900000E001B0704700BF005400407001002032
:1002A000A4010020A001002000580040740100209B
:1002B000A80100207801002081B0CDF800E00B46B5
:1002C000FFF746FF00EA03029A4240F2000200D123
:1002D0000122D0B2DDF800E001B0704781B00268C1
:1002E000C2F3401101B9FAE7011D096888B201B0F3
:1002F0007047FFFF82B0CDF800E0CFB201469846CC
:10030000029B4FF000064FF00005C44CA14207D1FC
:10031000C34CD4F80090C34C2568C34C25600BE057
:10032000C24CA14207D1C24C2068C24C2568BE4CC9
:100330002560814600E0A946BF4CC4F80090F4E176
:1003400001F210057C00A4B244F00104A4B22C60B8
:10035000019616464F46019A01F214042568C5F32A
:10036000400464B9B44C246844B127B90320AE4CAE
:100370002468A047E2E1781E0746FFE7ECE7002586
:100380000C6865F38A240C6001F21404206800BF35
:1003900001F218042468240440EA04042046012BD6
:1003A00005D101250C6865F349240C6004E00125A2
:1003B0000C6865F308240C609F4C256891469846AC
:1003C00037460E469D493046FFF776FF68B99A4C8E
:1003D00024684CB125B90320934C2468A047ADE1B3
:1003E0006C1E20460546FFE7ECE707EB090506F221
:1003F000100424682C70B8F1010F13D18E4C2168C1
:1004000030460568C5F340245CB98B4C24683CB188
:1004100021B90320844C2468A0478FE1491EFFE7DF
:10042000EFE712E0844C216830460568C5F30024EC
:100430005CB9814C24683CB121B903207A4C246812
:10044000A0477BE1491EFFE7EFE777E101250C6854
:1004500065F38A240C6001250C6865F3CB240C60DD
:1004600001F210057C00A4B244F00104A4B22C6097
:100470004F4601F214042568C5F3400464B96E4C7C
:10048000246844B127B90320674C2468A04755E18C
:10049000781E0746FFE7ECE701F21404206800BF6E
:1004A00001F2180424682404204300250C6865F335
:1004B0008A240C60604C276801F214042568C5F397
:1004C000800464B95C4C246844B127B90320564CBD
:1004D0002468A04732E1781E0746FFE7ECE7012BCE
:1004E00005D101250C6865F349240C6004E0012561
:1004F0000C6865F308240C60951901F21004246857
:100500002C70741C151901F2100424682C70012B36
:1005100014D1494C22680D68C5F3402464B9464C97
:10052000246844B122B903203F4C2468A04705E168
:10053000501E0246FFE7EEE7084613E03E4C2268F5
:100540000D68C5F3002464B93B4C246844B122B95A
:100550000320354C2468A047F0E0501E0246FFE718
:10056000EEE708460025046865F3CB240460E5E067
:1005700001250C6865F38A240C6001F210057C00EB
:10058000A4B244F00104A4B22C604646C846894691
:1005900017461D462A494846FFF78EFE78B9264C75
:1005A00024685CB1B8F1000F04D103201E4C24680C
:1005B000A047C3E0A8F101008046FFE7EAE7002179
:1005C000A8464A46B1463B46A9F10304A14222D2BD
:1005D000194C25688A4617461E4618493846FFF7C3
:1005E0006BFE60B9144C246844B125B903200E4C4D
:1005F0002468A047A2E0681E0546FFE7EDE706EB8A
:100600000A0507F2100424682C700AF1010421463F
:1006100033463A46D8E7084C00F014B8005400407E
:1006200070010020A4010020A0010020005800401B
:1006300074010020A8010020780100204000030080
:1006400002000300276801930B46164642460199B3
:1006500006F214042568C5F3800464B9394C246893
:1006600044B127B90320384C2468A04766E0781EBF
:100670000746FFE7ECE70025346865F38A24346019
:10068000CD1806F2100424682C70581C2D4C2368D9
:100690001746024606F214042568C5F3800464B9BF
:1006A000284C246844B123B90320274C2468A04770
:1006B00044E0581E0346FFE7ECE7012F07D1012570
:1006C000346865F3492434601046324621E0012540
:1006D000346865F3082434601A4CD4F80080174657
:1006E0000D461A493046FFF7E7FD78B9154C2468E6
:1006F0005CB1B8F1000F04D10320134C2468A0476B
:100700001CE0A8F101008046FFE7EAE729463246EF
:1007100038460D1802F2100424682C70441C0D1980
:1007200002F2100424682C7008E0B8F1010F3FF4C5
:1007300007AEB8F1020F3FF489AE19E7DDF800E02B
:1007400002B0704778010020A001002001000300E2
:1007500081B0CDF800E0012252B23E490A6000F2B9
:1007600068010B686FF0006103EA0102144603F0B0
:100770000061C90E0B4602F00041B1F1004F02D1F9
:1007800035490A6801E035490A6804F47021090C0A
:100790000E464FF6FF7104EA01010D4604F44011C4
:1007A000B1F5401F0DD16FF0706102EA01010E46F4
:1007B0002A490A686FF070610A4028490A60324687
:1007C00016E004F48011B1F5801F09D14FF0030148
:1007D000B140C94302EA010141F070610A4607E0F5
:1007E000610D090105FA01F1C9430A4042F0706246
:1007F0002BB1610D090105FA01F10A43FFE704F08D
:100800000041B1F1004F02D113490A6001E01349E0
:100810000A6040F2000A81464FEA8A0109EB0101B1
:100820000968B1F1FF3F10D009F134014FEA8A03A2
:10083000C91809680A4609EB030109680846114608
:10084000FFF7A6FC0AF1010AE6E7DDF800E001B0D7
:10085000704700BF000342421C00014004000140F9
:1008600082B0CDF800E0029E4FF00005564CA04249
:1008700006D1564C2768564C2568564C25600AE030
:10088000554CA04206D1554C2768554C2568514C13
:10089000256000E02F46534C276000F210054C0005
:1008A000A4B22C60B9460746904635461E464E49CE
:1008B0003846FFF701FD88B94A4C24686CB1B9F19C
:1008C000000F06D10420434C2468A0474FF6FF7068
:1008D00076E0A9F101008146FFE7E8E700200197F3
:1008E00029463746019E7C1EA04226D206F21005FC
:1008F00008EB000424782C603A4CD4F8009082462F
:100900000D463A493046FFF7D7FC88B9354C246884
:100910006CB1B9F1000F06D104202E4C2468A04719
:100920004FF6FF704CE0A9F101008146FFE7E8E7D0
:100930000AF1010420462946D5E706F2100508EB26
:10094000000424782C60274C27680D46284930463F
:10095000FFF7B2FC70B9234C246854B137B90420B6
:100960001C4C2468A0474FF6FF7029E0781E07460C
:10097000FFE7EBE7012D05D10125346865F3492434
:1009800034601CE00125346865F308243460154C9C
:100990002768354617492846FFF78EFC78B9114C71
:1009A00024685CB137B904200A4C2468A0474FF68C
:1009B000FF7005E07C1E20460746FFE7EAE70020BF
:1009C000DDF800E002B070470054004070010020E4
:1009D000A4010020A0010020005800407401002064
:1009E000A801002078010020820007008000070095
:1009F000840007000100030082B0CDF800E0034648
:100A000019460191FFF7BEFB40F2E83100FB01F20D
:100A100001990A601F490978C1F30311C8B21E4940
:100A200009180878C0B21A1D1968C1401160194927
:100A30000988C1F3022188B2174909180878C0B2A1
:100A400003F20802191D0968C140116011490988A3
:100A5000C1F3C22188B2104909180878C0B203F264
:100A60000C02191D0968C14011600A490988C1F3C7
:100A7000813188B2094909180978C8B203F2100215
:100A800003F20C010968B1FBF0F11160DDF800E040
:100A900002B07047041002404C2800004C1F0000B8
:100AA00083B0CDF800E003464FF0000026498B42AA
:100AB00006D126490C6826490A6826490A600BE0D7
:100AC00025498B4207D12549086825490A682149EB
:100AD0000A60044600E0044622490C600194029337
:100AE0001846FFF7A1FB029B019C10B94FF6FF705F
:100AF00025E00122196862F30821196003F214014C
:100B00000A68C2F3402111B14FF6FF7017E0254685
:100B10001C4615492046FFF7CFFB78B911490968F3
:100B200059B135B906200B4C2468A0474FF6FF7029
:100B300005E0691E08460546FFE7EAE70020DDF804
:100B400000E003B0704700BF005400407001002077
:100B5000A4010020A00100200058004074010020E2
:100B6000A8010020780100200100030081B019498C
:100B700000EA0101084600220EE0042022E00820DD
:100B800020E010201EE020201CE040201AE0802001
:100B900018E040F2001015E00F498842EDD00F49EF
:100BA0008842ECD00E498842EBD00E498842EAD008
:100BB0000D498842E9D00D498842E8D00C49884265
:100BC000E7D010460B49096841EA000209490A606A
:100BD00001B0704700FCFFFF00080140000C01401D
:100BE000001001400014014000180140001C0140A9
:100BF000002001401810024081B00168C1F340108C
:100C000001B0704781B00168C1F3801001B0704736
:100C100081B0CDF800E00348FFF7EEFFDDF800E01B
:100C200001B070470038014081B0CDF800E00348C2
:100C3000FFF7E8FFDDF800E001B070470038014041
:100C400081B0CDF800E008B413460A46C1B20448AA
:100C5000FFF750FB01B0DDF800E001B0704700BFC6
:100C60000058004081B0ADF800100146BDF800000A
:100C70000B68C3F3C01202B9FAE70A1D106001B095
:100C80007047FFFF81B0CDF800E00348FFF708FF91
:100C9000DDF800E001B070470054004081B0CDF8AD
:100CA00000E00348FFF71AFBDDF800E001B07047F1
:100CB0000038014081B0CDF800E00348FFF7F0FEB6
:100CC000DDF800E001B070470058004081B0CDF879
:100CD00000E008B413460A46C1B20448FFF70AFB15
:100CE00001B0DDF800E001B0704700BF00540040E3
:100CF00081B0CDF800E00348FFF7F0FADDF800E03E
:100D000001B070470044004081B0CDF800E00348D6
:100D1000FFF7E4FADDF800E001B070470050004052
:100D200081B0CDF800E00348FFF76CFFDDF800E08C
:100D300001B07047004C004081B0CDF800E003489E
:100D4000FFF75AFFDDF800E001B07047004C0040AB
:100D500081B0CDF800E008B413460A46C1B2044899
:100D6000FFF77EFD01B0DDF800E001B0704700BF85
:100D70000054004081B0CDF800E00348FFF742FF87
:100D8000DDF800E001B070470050004081B0CDF8C0
:100D900000E00348FFF730FFDDF800E001B07047E6
:100DA0000050004081B0CDF800E00348FFF796FA0C
:100DB000DDF800E001B07047004C004081B0CDF894
:100DC00000E00348FFF78AFADDF800E001B0704761
:100DD0000048004081B0CDF800E00348FFF712FF63
:100DE000DDF800E001B070470044004081B0CDF86C
:100DF00000E00348FFF700FFDDF800E001B07047B6
:100E00000044004081B0CDF800E00348FFF7FAFE4F
:100E1000DDF800E001B070470048004081B0CDF837
:100E200000E008B413460A46C1B20448FFF718FDB3
:100E300001B0DDF800E001B0704700BF005800408D
:100E400081B0CDF800E00348FFF7D6FEDDF800E002
:100E500001B070470048004081B0CDF800E08CB28E
:100E60001546774B00EA03031E461846FFF77EFE41
:100E7000B4F1FF0F0CD1734B9D4203D14FF03333CC
:100E80003360D9E0422D03D14FF044333360D3E0D7
:100E90004FF6FF739C4214D16A4B9D4207D14FF02D
:100EA00033333360341D4FF033332360C4E0422DBD
:100EB00007D14FF044333360341D4FF04433236087
:100EC000BAE00021002005F001030BB100211DE074
:100ED00005F0020333B105F4C0730BB1082100E043
:100EE000042113E005F0040333B105F020030BB136
:100EF000042100E0002109E005F0080333B105F00A
:100F000020030BB10C2100E00821FFE74E4B05EA5E
:100F100003030BB1032009E005F400730BB10220B9
:100F200004E005F480630BB10120FFE705F00C033A
:100F30000BB10143FFE704F0FF039BB2002B3BD052
:100F4000376800201FFA84F832462E4608282CD233
:100F50004FF0010303FA00F408EA0403A34222D18C
:100F600085004FF00F03AB40DB4307EA030401FAAF
:100F700005F344EA03031D4606F48173B3F5817F4C
:100F800005D102F214044FF001038340236006F000
:100F90008203822B05D102F210044FF0010383403B
:100FA00023602F46FFE7401CD0E717601FFA88F048
:100FB0000F463146164602E00F462946A0B2B0F170
:100FC000FF0F39D9331DD3F800800022082A30D210
:100FD00002F208044FF0010303FA04F400EA0403E8
:100FE000A34224D195004FF00F03AB40DB4308EA46
:100FF000030807FA05F348EA030801F48173B3F51F
:10100000817F07D106F2140502F208044FF00103B4
:10101000A3402B6001F08203822B07D106F210055A
:1010200002F208044FF00103A3402B60FFE7521CBB
:10103000CCE7331DC3F80080DDF800E001B0704755
:1010400000FCFFFF140008000008080088B0CDF87D
:1010500000E00E46554B98420DD1012464B2544B2A
:101060001C60544C544B1C60544C554B1C60554CEC
:10107000554B1C600FE0554B98420CD1012464B2D3
:10108000534B1C60534C4C4B1C60534C4C4B1C60E2
:10109000524C4D4B1C60019602901046FFF758FBD6
:1010A0000298019E031D1B689CB26FF03F0304EA87
:1010B00003039DB203AB01901846FFF79DFC019816
:1010C000059F059C464BB4FBF3F399B29BB245EAEE
:1010D0000304A4B2031D1C600024036864F300032E
:1010E000036000223F4B9E4212D87300B7FBF3F41B
:1010F000A4B2042C02D204231C46FFE742EA0403F4
:101100009AB200F220044B1C9BB2236091B23FE0E4
:10111000032306FB03F4B7FBF4F31FFA83F8192348
:1011200006FB03F5B7FBF5F31FFA83F908FB04F49C
:1011300009FB05F33C1BFB1A9C4205D203237343B6
:10114000B7FBF3F4A4B206E019237343B7FBF3F43F
:10115000A4B244F4804440F6FF7304EA030313B9D5
:1011600044F00104FFE744F400439BB21A4392B2F7
:1011700000F2200540F22C1301FB03F4A4B240F26C
:10118000E833B4FBF3F39BB25B1C9BB22B6091B2D0
:1011900000F21C031960002303600124036864F358
:1011A00000030360DDF800E008B070470054004021
:1011B000D4034242850C0000AC010020CD0C00009D
:1011C000B0010020510D0000B40100200058004083
:1011D000D8034242B50C0000410C00001D0E000077
:1011E00040420F00A086010089B0CDF800E08346A0
:1011F00098B28C46BDF824100A9E04ACADF80410D9
:10120000ADF808002046FFF7F7FBBDF80800BDF871
:101210000410644CA34512D101256DB2624C2560C7
:10122000624D634C2560634D634C2560634D644C97
:101230002560644D644C2560079C039456E0634C24
:10124000A34512D101256DB2614C2560614D584C0A
:101250002560614D584C2560604D594C2560604DAE
:10126000594C2560069C039440E05E4CA34512D186
:1012700001256DB25C4C25605C4D4D4C25605C4D8C
:101280004D4C25605B4D4E4C25605B4D4E4C2560B2
:10129000069C03942AE0594CA34512D101256DB256
:1012A000574C2560574D424C2560574D424C2560A8
:1012B000564D434C2560564D434C2560069C039487
:1012C00014E0544CA34511D101256DB2524C256058
:1012D000524D374C2560524D374C2560514D384C9E
:1012E0002560514D384C2560069C0394ADF80410E0
:1012F000ADF808003046FFF72BFABDF80800BDF83E
:1013000004100BF1100500242C600BF110052C6863
:101310000C432C600BF10C0500242C6018B140F438
:10132000806080B2FFE70BF10C052C6804432C6051
:101330000BF10C060125346865F34D3434600BF174
:101340000C060125346865F3C30434600BF10C0608
:101350000125346865F3820434600BF11405002420
:101360002C60039D192465434FEA8C04B5FBF4F708
:101370006424B7FBF4F42601350964246C433C1B58
:10138000240104F232056424B5FBF4F404F00F04E4
:1013900046EA04040BF10805A4B22C60DDF800E075
:1013A00009B0704700380140380342424915000037
:1013B000B80100209D0C0000BC010020110C0000B1
:1013C000C0010020290C0000C4010020004400409E
:1013D000C403424265150000F10C0000ED0D000051
:1013E000D50D000000480040C8034242B51500007A
:1013F000BD0D0000410E0000050E0000004C004035
:10140000CC03424255140000A50D0000390D000028
:10141000210D000000500040D00342428D14000016
:10142000090D00008D0D0000750D000081B0CDF894
:1014300000E0019D2C4610B408B493B28AB2014674
:101440000348FFF7D1FE02B0DDF800E001B07047BD
:101450000048004081B0CDF800E081B20348FFF7BA
:1014600001FCDDF800E001B0704700BF004C004017
:1014700081B0CDF800E00A4601460348FFF7E6FDDB
:10148000DDF800E001B070470054004081B0CDF8B5
:1014900000E081B20348FFF7E5FBDDF800E001B0B2
:1014A000704700BF0050004082B0CDF800E040F22D
:1014B0000004ADF80440064C2468A047BDF90410B0
:1014C00041EA000000B2DDF800E002B0704700BF62
:1014D0009001002081B0CDF800E0019D2C4610B4B1
:1014E00008B493B28AB201460348FFF77DFE02B00A
:1014F000DDF800E001B070470038014081B0CDF860
:1015000000E0019D2C4610B408B493B28AB20146A3
:101510000348FFF769FE02B0DDF800E001B0704754
:101520000044004082B0CDF800E040F20004ADF885
:101530000440044C2468A047BDF90400DDF800E035
:1015400002B070479801002081B0CDF800E081B270
:101550000348FFF787FBDDF800E001B0704700BFEC
:101560000038014081B0CDF800E081B20348FFF7B8
:1015700079FBDDF800E001B0704700BF0044004097
:1015800081B0CDF800E04FF0420289B2FFF764FC71
:10159000DDF800E001B0704781B0CDF800E0044A0A
:1015A00089B2FFF759FCDDF800E001B0704700BFD9
:1015B0001400080081B0CDF800E081B20348FFF7C5
:1015C00051FBDDF800E001B0704700BF004800406B
:1015D00082B0CDF800E040F20004ADF80440054CC4
:1015E0002468A047BDF90440044320B2DDF800E0C0
:1015F00002B070479401002001480068704700BFA6
:101600001881214201480068704700BF1001214243
:1016100001490860704700BF80012142014908600C
:10162000704700BFB001224201480068704700BF08
:101630002801224201480068704700BF2C01224265
:1016400001480068704700BF080122420148006855
:10165000704700BF3481224201490860704700BFD3
:10166000A881224201490860704700BF9881214249
:1016700040F27707C0F200077F1EFDD100BF00BF18
:1016800000BF00BF00BF704781B0CDF800E0A9E007
:10169000012905D140F210016548FFF771FF04E010
:1016A00040F210016248FFF777FFBBE0012905D146
:1016B00040F204015F48FFF763FF04E040F20401D9
:1016C0005C48FFF769FFADE0012905D142F2000156
:1016D0005948FFF755FF04E042F200015648FFF772
:1016E0005BFF9FE0012905D140F200415148FFF71F
:1016F00047FF04E040F200414E48FFF74DFF91E004
:10170000012905D140F600014A48FFF739FF04E0FE
:1017100040F600014748FFF73FFF83E0012905D16C
:1017200041F200014348FFF72BFF04E041F20001C2
:101730004048FFF731FF75E0012905D140F2010172
:101740003B48FFF71DFF04E040F201013848FFF776
:1017500023FF67E0012905D140F200413648FFF739
:101760000FFF04E040F200413348FFF715FF59E056
:10177000012905D140F200212F48FFF701FF04E0C5
:1017800040F200212C48FFF707FF4BE0012905D16B
:1017900040F200112848FFF7F3FE04E040F2001188
:1017A0002548FFF7F9FE3DE0012905D140F240014F
:1017B0002248FFF7E5FE04E040F240011F48FFF732
:1017C000EBFE2FE0012905D140F280011B48FFF715
:1017D000D7FE04E040F280011848FFF7DDFE21E06B
:1017E000012020E000283FF453AF01283FF45EAF12
:1017F00002283FF469AF03283FF474AF04283FF494
:101800007FAF05283FF48AAF06283FF495AF07283D
:10181000A0D00828ACD00928B8D00A28C4D00B28FA
:10182000D0D0DDE70020DDF800E001B0704700BF58
:10183000000801400010014000140140000C01406C
:1018400082B0CDF800E001A90870FFF72DFE01AAD3
:101850000D4909780023C8B211460122FFF7B8FEEE
:101860000DF10502084909780123C8B21146012289
:10187000FFF758FE0DF1050191F9001048B2DDF8AF
:1018800000E002B0704700BF7D0100200148006801
:10189000704700BF1C81214201490860704700BFAA
:1018A000A481224281B0CDF800E00178CCB2A0B290
:1018B000034C2468A0470020DDF800E001B0704729
:1018C0008001002001490860704700BFA0812242CA
:1018D00001480068704700BF2C012242014800689F
:1018E000704700BF3001224201480068704700BFC6
:1018F0003881224201480068704700BF2801224217
:1019000001480068704700BF188122420148006802
:10191000704700BF1481224201480068704700BF31
:101920003081224201480068704700BF3081224266
:1019300001480068704700BF0C012242014800685E
:10194000704700BF2881224201480068704700BFED
:101950002481224201480068704700BF30012242C2
:1019600001480068704700BF00012142014800683B
:10197000704700BF1C81214201480068704700BFCA
:101980001401214201480068704700BF20812242B3
:1019900001480068704700BF1881214281B0CDF82E
:1019A00000E0094902B440F2000340F2000240F2B4
:1019B0000001FFF7A3FD01B0044A05490A600020B9
:1019C000DDF800E001B07047A826000065150000B2
:1019D0008001002001490860704700BF98812242C1
:1019E00001490860704700BF880122420149086030
:1019F000704700BF9001214281B0CDF800E0094955
:101A000002B440F2000340F2000240F20001FFF78E
:101A100075FD01B0044A05490A600020DDF800E0C8
:101A200001B07047A8260000651500008001002065
:101A300001490860704700BFB081224281B0CDF8F3
:101A400000E0094902B440F2000340F2000240F213
:101A50000001FFF73FFD01B0044A05490A6000207C
:101A6000DDF800E001B070471427000049150000C0
:101A70008001002001490860704700BFB081224208
:101A800001490860704700BFB481224202680649DC
:101A90000A60011D0A6805490A6000F208010A6827
:101AA00003490A60704700BF9001002094010020A4
:101AB0009801002000F2300303F208010A68064989
:101AC0000A6003F21C010A6804490A60011D0A68E1
:101AD00003490A60704700BF84010020880100208C
:101AE0008C01002001490860704700BF98812142A5
:101AF00001490860704700BF9C812142014908608C
:101B0000704700BFAC01224201490860704700BF26
:101B1000A801224282B0CDF800E001AA1070521C48
:101B20001170FFF7C1FC01AB054A12781946012379
:101B3000D0B20222FFF74CFDDDF800E002B07047A2
:101B40007D01002001490860704700BF9481224256
:101B500001490860704700BFB00122420149086096
:101B6000704700BF8C01224201490860704700BFE6
:101B70009401214281B0CDF800E001680846044993
:101B8000FFF776FC0020DDF800E001B0704700BFF1
:101B90003C26000001490860704700BFB88122421E
:101BA00081B0CDF800E0A9E0012905D140F2200183
:101BB0006548FFF7E5FC04E040F220016248FFF7CA
:101BC000EBFCBBE0012905D140F208015F48FFF7BB
:101BD000D7FC04E040F208015C48FFF7DDFCADE013
:101BE000012905D144F200015948FFF7C9FC04E07E
:101BF00044F200015648FFF7CFFC9FE0012905D1D0
:101C000040F200415148FFF7BBFC04E040F20041C4
:101C10004E48FFF7C1FC91E0012905D140F60001D3
:101C20004A48FFF7ADFC04E040F600014748FFF7E3
:101C3000B3FC83E0012905D141F200014348FFF7DD
:101C40009FFC04E041F200014048FFF7A5FC75E06D
:101C5000012905D141F200013D48FFF791FC04E064
:101C600041F200013A48FFF797FC67E0012905D1EE
:101C700040F600013648FFF783FC04E040F600011F
:101C80003348FFF789FC59E0012905D140F24001B2
:101C90002F48FFF775FC04E040F240012C48FFF7A5
:101CA0007BFC4BE0012905D140F220012848FFF7D9
:101CB00067FC04E040F220012548FFF76DFC3DE0A1
:101CC000012905D140F240012248FFF759FC04E008
:101CD00040F240011F48FFF75FFC2FE0012905D1CA
:101CE00040F280011B48FFF74BFC04E040F280010A
:101CF0001848FFF751FC21E0012020E000283FF4C4
:101D000053AF01283FF45EAF02283FF469AF0328C8
:101D10003FF474AF04283FF47FAF05283FF48AAF47
:101D200006283FF495AF0728A0D00828ACD0092892
:101D3000B8D00A28C4D00B28D0D0DDE70020DDF8C9
:101D400000E001B0704700BF0008014000100140F2
:101D500000140140000C014001490860704700BFB9
:101D6000A801224201490860704700BF9C812142BE
:101D700081B0CDF800E0094902B440F2000340F21E
:101D8000000240F20001FFF751FB01B0044A05498F
:101D90000A600020DDF800E001B0704780270000F5
:101DA000B51500008001002001490860704700BFA0
:101DB000AC01224281B0CDF800E001680846044938
:101DC000FFF756FB0020DDF800E001B0704700BFD0
:101DD0003C260000A08601004DF2BF47C0F201077B
:101DE0007F1EFDD100BF00BF00BF00BF00BF704716
:101DF00081B0CDF800E084212E20FFF78BFE3F213B
:101E00002A20FFF787FE0A212D20FFF783FE0F20EF
:101E1000FFF716FDC0B200F00100C0B240F088002C
:101E2000C1B20F20FFF776FEDDF800E001B0704789
:101E300081B0CDF800E05FFA81F95FFA82FA0FE035
:101E40005FFA8AF15FFA89F0FFF71EFC0DE05FFA96
:101E50008AF15FFA89F0FFF7A3FE06E0012004E0B3
:101E60000028EDD00128F2D0F8E7DDF800E001B05D
:101E70007047FFFF83B0CDF800E000208DF8080028
:101E80001020FFF7DDFC41B2FFF7F2FB8DF80410E4
:101E90001120FFF7D5FC9DF9041042B2FFF7E8FBD3
:101EA0006FF03B00814202DC03208DF808003C29E2
:101EB00002DB07208DF808003C2A08DB142906DA2B
:101EC0006FF01300814202DB01208DF808006FF0F3
:101ED0003B00824208DC142906DC6FF013008142CB
:101EE00002DB05208DF808006FF0130081420CDA48
:101EF0006FF03B00814208DD142A03DD02208DF8DB
:101F0000080002E004208DF808003C290CDA1429AE
:101F10000ADD6FF01300824203DA06208DF8080014
:101F200002E008208DF808009DF80800DDF800E0C8
:101F300003B0704781B0CDF800E0034C2468A0479F
:101F4000DDF800E001B070478401002002040608BB
:101F500044F67F77C0F212077F1EFDD100BF00BF9D
:101F600000BF00BF00BF704781B0CDF800E011E0B6
:101F70000846FFF7FDFE16E00846FFF73DFD12E0BC
:101F80000846FFF75BFD0EE00846FFF707FD0AE095
:101F9000012008E00028EBD00128EDD02028EFD068
:101FA0003028F1D0F4E7DDF800E001B07047FFFF22
:101FB00083B0CDF800E0024610460D228DF80820CF
:101FC0000A228DF809201FE0FFF76CFC23E002785D
:101FD0002AB10190FFF766FC0198401CF7E71AE070
:101FE00002782AB10190FFF75DFC0198401CF7E7E9
:101FF00002AA1046FFF756FC0DF109021046FFF742
:1020000051FC08E0062007E00029DDD00129DED0E0
:102010000229E5D0F6E70020DDF800E003B07047C4
:1020200081B0CDF800E08B4609E05846FFF7A2FDED
:102030000AE05846FFF7BEFE06E0012004E0002853
:10204000F3D00128F5D0F8E7DDF800E001B07047E3
:1020500081B0CDF800E00446074B1A700846FFF740
:1020600015FD2046FFF726FD0120044C2468A047FB
:10207000DDF800E001B070477D0100208C010020F8
:1020800081B01548006840F0010113480160134910
:102090001348016010480168124801400E48016071
:1020A0000D4801686FF4802001400B4801600C4826
:1020B00001686FF4FE0001400948016006480168AC
:1020C0006FF0A0500140044801604FF00001064845
:1020D000016001B0704700BF001002400000FFF037
:1020E00004100240FFFFF6FE2C10024081B04FF0BA
:1020F00000094FF0000CBDEB0A0F04DCBDEB0B0F29
:1021000001DBD446EA464BF8049BBBEB0A0FFAD13D
:10211000BCEB0A0F05DDE246D9F800B00BF1040B69
:10212000F1E701B07047FFFF81B0CDF800E0012278
:1021300007210020FFF77CFE012202210020FFF78B
:1021400077FE002201210020FFF772FE07480146BA
:102150000020FFF765FF42F280510120FFF704FFE6
:10216000FFF7F6FEDDF800E001B07047D41D000077
:1021700081B0CDF800E0402210491148FFF768FF18
:10218000FFF7E6FEFFF734FE0E480221FFF710FFCF
:102190000D480221FFF70CFF0C480221FFF708FF52
:1021A0000B480221FFF704FF0A480221FFF700FF56
:1021B000FFF7CEFEDDF800E001B0704768280000B0
:1021C000EC27000001010020170100202D01002054
:1021D000430100205901002081B0CDF800E0FFF755
:1021E000A9FE45490870FFF745FE44490870FFF70E
:1021F000F3FD4148007801280DD14148007850B9DD
:1022000001213F4801703F480221FFF7D1FE3E48BF
:102210000221FFF7CDFE3848007830B93848007801
:10222000012802D10021364801703448017837482E
:102230000078884200F05C802CE035480221FFF7EE
:10224000B7FE4BE033480221FFF7B2FE46E03248CA
:102250000221FFF7ADFE41E030480221FFF7A8FE62
:102260003CE02F480221FFF7A3FE37E02D48022172
:10227000FFF79EFE32E02C480221FFF799FE2DE089
:102280002A480221FFF794FE28E029480221FFF79F
:102290008FFE23E0194800780028CED01748007838
:1022A0000128CFD0154800780228D0D013480078F4
:1022B0000328D1D0114800780428D2D00F480078E4
:1022C0000528D3D00D4800780628D4D00B480078D4
:1022D0000728D5D0094800780828D6D0154802210B
:1022E000FFF766FE0548017808480170FFF730FEE9
:1022F000DDF800E001B070476F0100207C01002094
:102300000000002001000020160000202C0000200A
:102310002D00002043000020580000206D00002008
:102320008200002097000020AC000020C1000020A7
:10233000D6000020EB00002081B01CF8019B0BF8B8
:10234000019BBBEB0A0FF8D101B0704781B0024985
:102350000248016001B07047401901009C01002053
:1023600081B0FEE701B0704700F00EF800F0D0FA3F
:10237000FFF7ECFF00F07EFAFFF7D6FEFFF7F8FE5E
:10238000FFF72AFFFCE7FEE781B0CDF800E0464A00
:10239000464B474C47494BF68030814206D9464868
:1023A000006840F002014448016011E045F6C05069
:1023B000814206D94048006840F001013E48016072
:1023C00006E03D4801686FF0070001403A480160AF
:1023D000FFF756FE3948036039480460394802EA7D
:1023E00000013948016002F0010040B11946364849
:1023F000006800F00200002800D1F8E700E019466C
:1024000002F4803040B10B462F48006800F40030E1
:10241000002800D1F8E700E00B4602F0805068B1D8
:102420002948006840F0805127480160264800682C
:1024300000F00050002800D1F8E7FFE702F08060CC
:1024400078B12148006840F080611F480160114662
:102450001A461D48006800F00060002800D1F8E727
:1024600001E011461A4601F0807070B1164800680C
:1024700040F080711448016011461348006800F074
:10248000007000B9F9E70A46FFE70C48006800F061
:102490000C01900000F00C00814200D0F5E7DDF85F
:1024A00000E001B0704700BF8100010502841D00FB
:1024B00044060100401901000020024004100240BF
:1024C0002C100240FFFF0F000010024001202042AC
:1024D0007574746F6E2069732070726573736564B0
:1024E00020002D2D2D2D2D2D2D2D2D2D2D2D2D2D56
:1024F0002D2D2D2D2D2D2D000120202020537461F8
:10250000727420706F736974696F6E2020200020D0
:102510002020202020202020546F702020202020E8
:1025200020202000202020202020546F702D526970
:1025300067687420202020200020202020202020D8
:10254000205269676874202020202020200020204D
:10255000202020426F74746F6D2D5269676874205B
:102560002020002020202020202020426F74746F23
:102570006D202020202020002020202020426F7469
:10258000746F6D2D4C656674202020200020202063
:102590002020202020204C65667420202020202030
:1025A000200020202020202020546F702D4C6566B4
:1025B000742020202020002D2D2D2D2D2D2D2D2D72
:1025C0002D2D2D2D2D2D2D2D2D2D2D2D002D2D2D68
:1025D0002D2D2D2D2D2D2D2D2D2D2D2D2D2D2D2D2B
:1025E0002D2D0020202020436F6E66696775726173
:1025F00074696F6E20202020002D2D2D2D2D2D2D66
:102600002D2D2D2D2D2D2D2D2D2D2D2D2D2D002034
:102610002020204A6F79737469636B20436C69636F
:102620006B202020002D2D2D2D2D2D2D2D2D2D2DF0
:102630002D2D2D2D2D2D2D2D2D2D00FF16000000C3
:1026400017000000FFFFFFFF000000000000000077
:10265000000000000000000000000000000000007A
:10266000000000000000000000000000000000006A
:1026700028080000280800000000000000000000FA
:10268000000000000000000000000000000000004A
:10269000000000000000000000000000000000003A
:1026A00000000000020000003500000036000000BD
:1026B000FFFFFFFF0000000000000000000000001E
:1026C000000000000000000000000000000000000A
:1026D00000000000000000000000000018080000DA
:1026E00018000000000000000000000000000000D2
:1026F00000000000000000000000000000000000DA
:1027000000000000000000000000000000000000C9
:1027100008000008090000000A000000FFFFFFFF9A
:1027200000000000000000000000000000000000A9
:102730000000000000000000000000000000000099
:102740000000000000000000180800001800000051
:102750000000000000000000000000000000000079
:102760000000000000000000000000000000000069
:102770000000000000000000000000000400000055
:102780003800000039000000FFFFFFFF00000000DC
:102790000000000000000000000000000000000039
:1027A0000000000000000000000000000000000029
:1027B00000000000180800001800000000000000E1
:1027C0000000000000000000000000000000000009
:1027D00000000000000000000000000000000000F9
:1027E000000000000000000030001408ED19000097
:1027F000E1190000811A0000091B0000FD1A000009
:102800001D1600001116000059160000991800004E
:10281000C518000065160000651D000005160000C3
:10282000411600004D160000291600003516000064
:1028300055190000611900003D19000049190000F8
:1028400085190000911900006D19000000000000BA
:102850000102030401020304060708090000000046
:102860000000000000000000850C0000510D000079
:10287000CD0C000000B5DFF824B0DFF824A0DFF8AD
:1028800024C0FFF759FDDFF820B0DFF820A0DFF803
:1028900020C0FFF751FD00BD704700BF00000020C1
:1028A0006F010020CC240000700100207C0100207A
:1028B0005C280000FFFFFFFFFFFFFFFFFFFFFFFFA0
:1028C000FFFFFFFFFFFFFFFFFFFFFFFFFFFFFFFF18
:1028D000FFFFFFFFFFFFFFFFFFFFFFFFFFFFFFFF08
:1028E000FFFFFFFFFFFFFFFFFFFFFFFFFFFFFFFFF8
:1028F000FFFFFFFFFFFFFFFFFFFFFFFFFFFFFFFFE8
:10290000FFFFFFFFFFFFFFFFFFFFFFFFFFFFFFFFD7
:1029100000B5DFF810B0DFF810A0FFF7E7FB00BD4F
:10292000704700BF00000020C8010020FFFFFFFF2C
:00000001FF
