:1000000047EF0EF00000000000EF00F000000000DD
:0A0010000000000000000000F3D71C
:0E001C00020100B102D08B9801D08B88120037
:0E002A00020100B102D08B9601D08B8612002D
:0E003800020100B102D08D9601D08D8612001B
:0E004600020100B102D0899401D08984120019
:0E005400020100B102D08B9C01D08B8C1200F7
:0E006200020100B102D08B9401D08B841200F9
:0E007000020100B102D08B9A01D08B8A1200DF
:0E007E00020100B102D08B9E01D08B8E1200C9
:0E008C00020100B102D08A9201D08A821200D5
:0E009A00020100B102D08D9401D08D841200BD
:0E00A800020100B102D08F9201D08F821200AF
:0E00B600020100B102D08F9401D08F8412009D
:0E00C400020100B102D08B9801D08B8812008F
:0E00D200020100B102D08B9601D08B86120085
:0E00E000020100B102D08A9401D08A8412007D
:0E00EE00020100B102D08B9801D08B88120065
:0E00FC00020100B102D08B9601D08B8612005B
:0E010A00020100B102D08F9001D08F80120050
:0E011800020100B102D08B9A01D08B8A120036
:0E012600020100B102D08B9801D08B8812002C
:0E013400020100B102D08B9601D08B86120022
:0E014200020100B102D08B9201D08B8212001C
:0E015000020100B102D08B9A01D08B8A1200FE
:0E015E00020100B102D08D9001D08D80120000
:10016C000F0121B302D00000FBD700C21CFF12000C
:0E017C00ACB202D00000FCD700C2ADFF1200F2
:0E018A00020100B102D08B9001D08B801200D8
:0E019800020100B102D0899001D089801200CE
:0E01A600020100B102D08A9001D08A801200BE
:0E01B400020100B102D08D9201D08D821200A6
:0E01C200020100B102D0899801D08988120094
:0E01D000020100B102D08B9801D08B88120082
:0E01DE00020100B102D08B9601D08B86120078
:0E01EC00020100B102D0899201D08982120076
:0E01FA00020100B102D08B9C01D08B8C120050
:0E020800020100B102D08B9E01D08B8E12003D
:0E021600020100B102D08B9801D08B8812003B
:0E022400020100B102D08B9601D08B86120031
:10023200C7B409D01F0EC514016E0150000A03E1B4
:0A024200010E006E01D0006A1200E8
:10024C00F250026EF29E0500FF6A0150FE6E0050E5
:08025C00FD6E02BEF28E1200DD
:1002640068B409D01F0E6614016E0150000A03E140
:0A027400010E006E01D0006A1200B6
:0A027E00000E80B0010E006E1200A9
:100288001DCF01F00F0122A302D02299228901C0BB
:0402980000F0120060
:0A029C00000EA4BA010E006E12005D
:0A02A600000E82B6010E006E120079
:0A02B000000E84B0010E006E120073
:0A02BA00000E82B0010E006E12006B
:0A02C400000E9EBA010E006E12003B
:1002CE00AECF01F0ABA202D0AB98AB8801C000F06C
:0202DE0012000C
:0A02E000000E82BA010E006E12003B
:0C02EA00000E0F0121B3010E006E120087
:0A02F600000E82B8010E006E120027
:0A030000000EACB2010E006E1200F8
:0A030A00000E80B2010E006E12001A
:0A031400000E82B8010E006E120008
:0A031E00000E82B6010E006E120000
:0A032800000E82B6010E006E1200F6
:0A033200000E84B2010E006E1200EE
:0A033C00000E80B8010E006E1200E2
:0A034600000E82B2010E006E1200DC
:0A035000000E82BA010E006E1200CA
:0A035A00000E82B8010E006E1200C2
:0A036400000E82BC010E006E1200B4
:0A036E00000E82BE010E006E1200A8
:0A037800000E81B0010E006E1200AD
:0A038200000E82B8010E006E12009A
:10038C0088C1FCF189C1FDF18AC1FEF18BC1FFF17D
:10039C009E96C5869EB61FD00101885189118A117F
:1003AC008B1118E0FC51FD11FE11FF110CE1D9C1AC
:1003BC00E1FFDAC1E2FF030EE66ED7C100F0D8C14F
:1003CC0001F03EDF08D0010E0101FC5F000EFD5B69
:1003DC00FE5BFF5BDFD70101C9CFFBF1FA51000ACD
:1003EC0002E1C58A01D0C59A9E96C58888C1FCF1E8
:1003FC0089C1FDF18AC1FEF18BC1FFF19EB61ED001
:10040C00885189118A118B1118E0FC51FD11FE11D4
:10041C00FF110CE1D9C1E1FFDAC1E2FF030EE66E78
:10042C00D7C100F0D8C101F00BDF08D0010E0101DB
:10043C00FC5F000EFD5BFE5BFF5BE0D7FBC100F0D9
:02044C0012009C
:10044E009E96FAC1C9FF88C1FBF189C1FCF18AC130
:10045E00FDF18BC1FEF1C7A421D001018851891194
:10046E008A118B111AE0FB51FC11FD11FE110EE1E8
:10047E00D9C1E1FFDAC1E2FF040EE66ED7C100F08A
:10048E00D8C101F0DCDE010E006E3AD0010E010182
:10049E00FB5F000EFC5BFD5BFE5BDDD788C1FBF1F5
:1004AE0089C1FCF18AC1FDF18BC1FEF19EB621D04E
:1004BE000101885189118A118B111AE0FB51FC112F
:1004CE00FD11FE110EE1D9C1E1FFDAC1E2FF040E0A
:1004DE00E66ED7C100F0D8C101F0B1DE010E006E9C
:1004EE000FD0010E0101FB5F000EFC5BFD5BFE5B9E
:1004FE00DDD7C5BC02D0006A03D0C584020E006EE3
:02050E001200D9
:0A051000000E86B4010E006E12000A
:0A051A00000E82B6010E006E120002
:0A052400000E82B6010E006E1200F8
:0A052E00000E81B4010E006E1200F1
:1005380042C1FAF143C1FBF144C1FCF145C1FDF1EF
:10054800668266A21FD00101425143114411451130
:1005580018E0FA51FB11FC11FD110CE1B9C1E1FFE2
:10056800BAC1E2FF060EE66EB7C100F0B8C101F0ED
:1005780069DE08D0010E0101FA5F000EFB5BFC5B2F
:06058800FD5BDFD712004D
:04058E00668412006D
:1005920088C1FCF189C1FDF18AC1FEF18BC1FFF175
:1005A2000101FA6BFB6BFB51120802E1FA518E0852
:1005B20008E33EDE005201E004D00101FA4BFB2BBE
:1005C200F2D70101120EFB5D02E18F0EFA5D03E329
:1005D2007B0E006E24D0C580C5A020D08851891121
:1005E2008A118B111AE0FC51FD11FE11FF110EE16F
:1005F200D9C1E1FFDAC1E2FF050EE66ED7C100F014
:10060200D8C101F022DE010E006E09D0010E0101F7
:10061200FC5F000EFD5BFE5BFF5BDED7006A120033
:10062200A19AFAC16AFF42C1FBF143C1FCF144C184
:10063200FDF145C1FEF168A421D0010142514311EF
:10064200441145111AE0FB51FC11FD11FE110EE19E
:10065200B9C1E1FFBAC1E2FF040EE66EB7C100F014
:10066200B8C101F0F2DD010E006E3AD0010E0101B7
:10067200FB5F000EFC5BFD5BFE5BDDD742C1FBF165
:1006820043C1FCF144C1FDF145C1FEF1A1BA21D043
:10069200010142514311441145111AE0FB51FC1171
:1006A200FD11FE110EE1B9C1E1FFBAC1E2FF040E74
:1006B200E66EB7C100F0B8C101F0C7DD010E006EF1
:1006C2000FD0010E0101FB5F000EFC5BFD5BFE5BC8
:1006D200DDD766BC02D0006A03D06684020E006ECB
:0206E200120004
:0A06E400000E86B2010E006E120037
:0406EE00C5841200AD
:1006F20042C1FCF143C1FDF144C1FEF145C1FFF12C
:10070200A19A6686A1BA1FD0010142514311441138
:10071200451118E0FC51FD11FE11FF110CE1B9C1A8
:10072200E1FFBAC1E2FF030EE66EB7C100F0B8C145
:1007320001F08BDD08D0010E0101FC5F000EFD5BB4
:10074200FE5BFF5BDFD701016ACFFBF1FA51000AC2
:1007520002E1668A01D0669AA19A668842C1FCF1DA
:1007620043C1FDF144C1FEF145C1FFF1A1BA1ED062
:10077200425143114411451118E0FC51FD11FE1183
:10078200FF110CE1B9C1E1FFBAC1E2FF030EE66E4F
:10079200B7C100F0B8C101F058DD08D0010E010167
:1007A200FC5F000EFD5BFE5BFF5BE0D7FBC100F070
:0207B200120033
:0A07B400000E81B2010E006E12006B
:1007BE0088C1FAF189C1FBF18AC1FCF18BC1FDF14F
:1007CE00C582C5A21FD00101885189118A118B11D2
:1007DE0018E0FA51FB11FC11FD110CE1D9C1E1FF3A
:1007EE00DAC1E2FF060EE66ED7C100F0D8C101F005
:1007FE0026DD08D0010E0101FA5F000EFB5BFC5BEB
:06080E00FD5BDFD71200C4
:0A081400000E86B0010E006E120007
:0A081E00000E82BC010E006E1200F5
:0A082800000E82B4010E006E1200F3
:1008320042C1FCF143C1FDF144C1FEF145C1FFF1EA
:100842000101FA6BFB6BFB51120802E1FA518E08AF
:1008520008E307DD005201E004D00101FA4BFB2B53
:10086200F2D70101120EFB5D02E18F0EFA5D03E386
:100872007B0E006E24D0668066A020D042514311C8
:10088200441145111AE0FC51FD11FE11FF110EE158
:10089200B9C1E1FFBAC1E2FF050EE66EB7C100F0D1
:1008A200B8C101F0D2DC010E006E09D0010E0101C7
:1008B200FC5F000EFD5BFE5BFF5BDED7006A120091
:0A08C200000E82B8010E006E120055
:0A08CC00000E82BA010E006E120049
:0A08D600000E80B4010E006E120047
:0A08E000000E82B8010E006E120037
:0A08EA00000E84B6010E006E12002D
:0A08F400000E82B6010E006E120025
:0A08FE00000E82BE010E006E120013
:0A090800000E84B4010E006E120010
:100912000101F06BF16BCFC100F0D0C101F095DCA9
:1009220000C0F0F1000E0101F16FF0C100F0F1C161
:0409320001F01200BE
:100936006C0E0101BB6F010EBC6F000EBD6F020E87
:10094600BE6F880EDB6F020EDC6F000EDD6F000ED1
:10095600DE6F9C0EDF6F020EE06F000EE16F000E81
:10096600E26FEA0ED36F020ED46F000ED56F000E43
:10097600D66F0F01218B900E226F98849892A4AAAD
:0A09860003D01DCF00F0FBD71200D4
:10099000320E0101AF6F020EB06F000EB16F000E8C
:1009A000B26F920EB36F050EB46F000EB56F000EEE
:1009B000B66FBE0EC76F070EC86F000EC96F000E70
:1009C000CA6F8C0ECB6F030ECC6FFA0ECD6F010E7B
:1009D000CE6F4E0EBF6F040EC06FFA0EC16F010EC8
:1009E000C26FEE0EC36F060EC46F000EC56F000E11
:1009F000C66F949894968B988B9694889486C79E8D
:080A0000C79C380EC66E1200FF
:100A08007C0E0101BB6F010EBC6F000EBD6F020EA4
:100A1800BE6FCE0EDB6F020EDC6F000EDD6F000EB8
:100A2800DE6FC40EDF6F020EE06F000EE16F000E86
:100A3800E26F000ED36F030ED46F000ED56F000E59
:100A4800D66FAC8A900EAB6E948E949C9EAA03D0FF
:080A5800AECF00F0FBD7120045
:100A60000101F86BF96BF1C1F6F1F2C1F7F1F0C1D8
:100A700000F0003600900080A0C1E1FFA1C1E2FFBC
:100A800000C0E6FF9EC100F09FC101F026EC01F01E
:100A900000500101F813000EF913010EF35F000E70
:100AA000F45BF351F41116E098C1E1FF99C1E2FF44
:100AB000010EE66E96C100F097C101F026EC01F040
:100AC000F6C1E1FFF7C1E2FF00C0E6FF0101F64B0E
:100AD000F72BE3D798C1E1FF99C1E2FFE66A96C11F
:100AE00000F097C101F026EC01F0F6C1E1FFF7C17B
:100AF000E2FF00C0E6FF0101F551000A06E1A2C1D4
:100B000000F0A3C101F026EC01F00101F551010A4A
:100B100006E18EC100F08FC101F026EC01F0F8C1B2
:080B200000F0F9C101F0120020
:100B28000101F86BF96BF1C1F6F1F2C1F7F1F0C10F
:100B380000F000360090A0C1E1FFA1C1E2FF00C0B3
:100B4800E6FF9EC100F09FC101F026EC01F00050C5
:100B58000101F813000EF913F3C100F0F4C101F01C
:100B6800010EF35F000EF45B0050011018E0A0C105
:100B7800E1FFA1C1E2FFF6C1E9FFF7C1EAFFEECF4D
:100B8800E6FF9EC100F09FC101F026EC01F0005085
:100B98000101F813000EF913F64BF72BDDD7F551C9
:100BA800000A06E1A2C100F0A3C101F026EC01F0A1
:100BB8000101F551010A06E18EC100F08FC101F073
:0E0BC80026EC01F0F8C100F0F9C101F01200B6
:100BD600EAC1EBF19BDEA6C1F0F1EB0EF16F010E5F
:100BE600F26F010EF36F000EF46F010EF56F99DFD1
:100BF600A6C1F0F1EC0E0101F16F010EF26F010ECC
:100C0600F36F000EF46FF56B28DFECC100F01200F5
:100C160021D0CF0EAF6EAC94F4DE6BD0670EAF6E04
:100C2600AC94EFDE66D0CF0EAF6EAC84EADE61D058
:100C3600670EAF6EAC84E5DE5CD0440EAF6EAC845E
:100C4600E0DE57D0220EAF6EAC84DBDE52D0060E4D
:100C5600006E58D00101000E006EED1908E100503B
:100C6600EC1905E1120EEB1902E1EA51C00AD1E0D6
:100C7600000E006EED1908E10050EC1905E1250E95
:100C8600EB1902E1EA51800AC9E0000E006EED1987
:100C960008E10050EC1905E14B0EEB1902E1EA51AF
:100CA600000AC1E0000E006EED1908E10050EC19D3
:100CB60005E1960EEB1902E1EA51000AB9E0000ED1
:100CC600006EED1908E10050EC1905E1E10EEB1993
:100CD60002E1EA51000AB1E0ED51000A08E1EC51E7
:100CE600010A05E1EB51C20A02E1EA51000AAAE053
:100CF600AED77C0E9A6F010E9B6F000E9C6F020E94
:060D06009D6F006A12005F
:100D0C0021D0CF0EAF6EAC9479DE6BD0670EAF6E88
:100D1C00AC9474DE66D0CF0EAF6EAC846FDE61D057
:100D2C00670EAF6EAC846ADE5CD0440EAF6EAC84E2
:100D3C0065DE57D0220EAF6EAC8460DE52D0060E4C
:100D4C00006E58D00101000E006EED1908E1005044
:100D5C00EC1905E1120EEB1902E1EA51C00AD1E0DF
:100D6C00000E006EED1908E10050EC1905E1250E9E
:100D7C00EB1902E1EA51800AC9E0000E006EED1990
:100D8C0008E10050EC1905E14B0EEB1902E1EA51B8
:100D9C00000AC1E0000E006EED1908E10050EC19DC
:100DAC0005E1960EEB1902E1EA51000AB9E0000EDA
:100DBC00006EED1908E10050EC1905E1E10EEB199C
:100DCC0002E1EA51000AB1E0ED51000A08E1EC51F0
:100DDC00010A05E1EB51C20A02E1EA51000AAAE05C
:100DEC00AED77C0E9A6F010E9B6F000E9C6F020E9D
:060DFC009D6F006A120069
:100E020038D00F0120870D0E1F6F040E1E6F218533
:100E120091DD7ED00F012087060E1F6F820E1E6F9E
:100E2200218588DD75D00F012087030E1F6F400ECC
:100E32001E6F21857FDD6CD00F012087010E1F6F91
:100E4200A00E1E6F218576DD63D00F012087010E73
:100E52001F6F150E1E6F21856DDD5AD00F01208781
:100E62001F6B8A0E1E6F218565DD52D0060E006E45
:100E720059D0000E006E0101ED1908E10050EC1985
:100E820005E1120EEB1902E1EA51C00ABAE0000EC6
:100E9200006EED1908E10050EC1905E1250EEB1981
:100EA20002E1EA51800AB6E0000E006EED1908E197
:100EB2000050EC1905E14B0EEB1902E1EA51000A70
:100EC200B2E0000E006EED1908E10050EC1905E1E8
:100ED200960EEB1902E1EA51000AAEE0000E006E36
:100EE200ED1908E10050EC1905E1E10EEB1902E100
:100EF200EA51000AAAE0ED51000A08E1EC51010AA8
:100F020005E1EB51C20A02E1EA51000AA7E0AED7BD
:100F120001016C0E9A6F010E9B6F000E9C6F020E08
:060F22009D6F006A120041
:100F280021D0CF0EAF6EAC946BDD6BD0670EAF6E79
:100F3800AC9466DD66D0CF0EAF6EAC8461DD61D057
:100F4800670EAF6EAC845CDD5CD0440EAF6EAC84D3
:100F580057DD57D0220EAF6EAC8452DD52D0060E4C
:100F6800006E58D00101000E006EED1908E1005026
:100F7800EC1905E1120EEB1902E1EA51C00AD1E0C1
:100F8800000E006EED1908E10050EC1905E1250E80
:100F9800EB1902E1EA51800AC9E0000E006EED1972
:100FA80008E10050EC1905E14B0EEB1902E1EA519A
:100FB800000AC1E0000E006EED1908E10050EC19BE
:100FC80005E1960EEB1902E1EA51000AB9E0000EBC
:100FD800006EED1908E10050EC1905E1E10EEB197E
:100FE80002E1EA51000AB1E0ED51000A08E1EC51D2
:100FF800010A05E1EB51C20A02E1EA51000AAAE03E
:10100800AED77C0E9A6F010E9B6F000E9C6F020E7E
:061018009D6F006A12004A
:10101E005DD00101EBB102D0929401D092840F0108
:10102E0025957AD00101EBB102D0969601D0968625
:10103E0073D00101EBB102D0969401D096846CD09E
:10104E000101EBB102D0949601D0948665D00101D6
:10105E00EBB102D0949801D094885ED00101EBB12F
:10106E0002D0949A01D0948A57D00101EBB102D0EC
:10107E00989001D0988050D00101EBB102D093949A
:10108E0001D0938449D00101EBB102D0989401D0E4
:10109E0098840F01239540D00101EBB102D09892B4
:1010AE0001D098820F01239337D00101EBB102D00A
:1010BE00949601D0948630D00101EBB102D0949871
:1010CE0001D0948829D0010E006E28D00101EA517A
:1010DE00000A9FE0EA51010AA5E0EA51020AA9E0DE
:1010EE00EA51030AADE0EA51040AB1E0EA51050AF9
:1010FE00B5E0EA51060AB9E0EA51070ABDE0EA5145
:10110E00080AC1E0EA51090AC7E0EA510A0ACDE02D
:0E111E00EA510B0AD1E0D7D7000E006E120086
:10112C0059D00101EBB102D0929201D092820F0101
:10113C00259376D00101EBB102D0929801D0928820
:10114C006FD00101EBB102D0969201D0968268D09B
:10115C000101EBB102D0949601D0948661D00101CB
:10116C00EBB102D0949801D094885AD00101EBB124
:10117C0002D0949A01D0948A53D00101EBB102D0E1
:10118C00949401D094844CD00101EBB102D0939291
:10119C0001D0938245D00101EBB102D0949E01D0D5
:1011AC00948E3ED00101EBB102D0949C01D0948C72
:1011BC0037D00101EBB102D0949601D0948630D097
:1011CC000101EBB102D0949801D0948829D0010E82
:1011DC00006E28D00101EA51000AA3E0EA51010A8D
:1011EC00A9E0EA51020AADE0EA51030AB1E0EA5182
:1011FC00040AB5E0EA51050AB9E0EA51060ABDE075
:10120C00EA51070AC1E0EA51080AC5E0EA51090AA5
:10121C00C9E0EA510A0ACDE0EA510B0AD1E0D7D76E
:06122C00000E006E12002E
:1012320059D00101EBB102D0929001D092800F01FE
:10124200259176D00101EBB102D0949001D0948027
:101252006FD00101EBB102D0969001D0968068D098
:101262000101EBB102D0949601D0948661D00101C4
:10127200EBB102D0949801D094885AD00101EBB11D
:1012820002D0949A01D0948A53D00101EBB102D0DA
:10129200949201D094824CD00101EBB102D0939090
:1012A20001D0938045D00101EBB102D0949E01D0D0
:1012B200948E3ED00101EBB102D0949C01D0948C6B
:1012C20037D00101EBB102D0949601D0948630D090
:1012D2000101EBB102D0949801D0948829D0010E7B
:1012E200006E28D00101EA51000AA3E0EA51010A86
:1012F200A9E0EA51020AADE0EA51030AB1E0EA517B
:10130200040AB5E0EA51050AB9E0EA51060ABDE06D
:10131200EA51070AC1E0EA51080AC5E0EA51090A9E
:10132200C9E0EA510A0ACDE0EA510B0AD1E0D7D767
:06133200000E006E120027
:10133800EAC1EDF1EBC1EEF1ECC1EFF10DD0A00E79
:10134800C86EC8EC04F045D0280EC86EC8EC04F08E
:1013580040D0040E006E3FD0EDC1F6FFEEC1F7FF9E
:10136800EFC1F8FF0900F5CF01F00900F5CF02F051
:101378000900F5CF03F00900F5CF04F00450000A86
:1013880008E10350010A05E10250860A02E1015012
:10139800A00AD5E0EDC1F6FFEEC1F7FFEFC1F8FFF7
:1013A8000900F5CF01F00900F5CF02F00900F5CFEB
:1013B80003F00900F5CF04F00450000A08E10350D7
:1013C800060A05E102501A0A02E10150800ABCE04F
:0813D800C0D7000E006E1200E8
:1013E000EAC1EDF1EBC1EEF1ECC1EFF10DD0A00ED1
:1013F000C86EC8EC04F045D0280EC86EC8EC04F0E6
:1014000040D0040E006E3FD0EDC1F6FFEEC1F7FFF5
:10141000EFC1F8FF0900F5CF01F00900F5CF02F0A8
:101420000900F5CF03F00900F5CF04F00450000ADD
:1014300008E10350010A05E10250860A02E1015069
:10144000A00AD5E0EDC1F6FFEEC1F7FFEFC1F8FF4E
:101450000900F5CF01F00900F5CF02F00900F5CF42
:1014600003F00900F5CF04F00450000A08E103502E
:10147000060A05E102501A0A02E10150800ABCE0A6
:08148000C0D7000E006E12003F
:10148800EAC1EDF1EBC1EEF1ECC1EFF10DD0A00E28
:10149800C86EC8EC04F045D0280EC86EC8EC04F03D
:1014A80040D0040E006E3FD0EDC1F6FFEEC1F7FF4D
:1014B800EFC1F8FF0900F5CF01F00900F5CF02F000
:1014C8000900F5CF03F00900F5CF04F00450000A35
:1014D80008E10350010A05E10250860A02E10150C1
:1014E800A00AD5E0EDC1F6FFEEC1F7FFEFC1F8FFA6
:1014F8000900F5CF01F00900F5CF02F00900F5CF9A
:1015080003F00900F5CF04F00450000A08E1035085
:10151800060A05E102501A0A02E10150800ABCE0FD
:08152800C0D7000E006E120096
:10153000EAC1F6FFEBC1F7FFECC1F8FF0900F5CFF8
:10154000CFF10900F5CFD0F10900F5CFD1F10900B5
:10155000F5CFD2F1040E0101EA25F66E000EEB2163
:10156000F76E000EEC21F86E0900F5CFA2F109002C
:10157000F5CFA3F10900F5CFA4F10900F5CFA5F14E
:10158000080EEA25F66E000EEB21F76E000EEC2138
:10159000F86E0900F5CF8EF10900F5CF8FF1090043
:1015A000F5CF90F10900F5CF91F10C0EEA25F66E1A
:1015B000000EEB21F76E000EEC21F86E0900F5CF5E
:1015C0009EF10900F5CF9FF10900F5CFA0F10900C8
:1015D000F5CFA1F1100EEA25F66E000EEB21F76EA5
:1015E000000EEC21F86E0900F5CF96F10900F5CF59
:1015F00097F10900F5CF98F10900F5CF99F11200A4
:10160000300E0101EA25006E000EEB21016E000E86
:10161000EC21026E080E0024F66E000E0120F76E1B
:10162000000E0220F86E0900F5CF92F10900F5CF07
:1016300093F10900F5CF94F10900F5CF95F11C0E57
:101640000024F66E000E0120F76E000E0220F86EE8
:101650000900F5CFABF10900F5CFACF10900F5CFEA
:10166000ADF10900F5CFAEF1040EEA25F66E000EDD
:10167000EB21F76E000EEC21F86E0900F5CFA7F113
:101680000900F5CFA8F10900F5CFA9F10900F5CFC0
:04169000AAF11200A9
:10169400EAC1ECF1EBC1EDF189EC04F0A6C1F0F183
:1016A400EC0EF16F010EF26F020EF36F000EF46F89
:0816B400F56B94EC05F0120047
:1016BC009CC1E1FF9DC1E2FFEAC1E9FFEBC1EAFF7A
:1016CC00EECFE6FF9AC100F09BC101F026EC01F0D1
:0416DC00006A12008E
:0A16E000350E0D6E0D2EFED7120020
:1016EA00D00E0C6EC90E0D6E0D2EFED70C2EFCD729
:0616FA00000000001200D8
:0E17000092C100F093C101F026EC01F012003E
:10170E0015D0E4C1EAF1E5C1EBF18CDD1AD0E4C1EC
:10171E00EAF1E5C1EBF103DD14D0E4C1EAF1E5C174
:10172E00EBF176DC0ED0010E006E0BD00101E35111
:10173E00000AE7E0E351010AEAE0E351020AEDE0B4
:04174E00F2D71200BC
:101752001BD0E4C1EAF1E5C1EBF1E6C1ECF193DEA5
:101762001ED0E4C1EAF1E5C1EBF1E6C1ECF137DEEE
:1017720016D0E4C1EAF1E5C1EBF1E6C1ECF1DBDD43
:101782000ED0010E006E0BD00101E351000AE1E020
:10179200E351010AE6E0E351020AEBE0F2D712005C
:1017A2000101E56B100EEA6FEBEC05F000C0E3F10E
:1017B20096DF110E0101EA6FEBEC05F000C0E4F1D7
:1017C2008EDF800EC40A006E800E0101E319005CF8
:1017D20002E3030EE56F800EE319006E800E3C0AF1
:1017E200005C02E3070EE56F800EE419006E800EC6
:1017F2003C0A005C10E3800EE319006E800E140AAE
:10180200005C09E2800EE319006E800EEC0A005CB7
:1018120002E3010EE56F800EC40A006E800EE41929
:10182200005C10E3800E140A006E800EE319005C67
:1018320009E3800EE319006E800EEC0A005C02E3FD
:10184200050EE56F800EE319006E800EEC0A005C57
:1018520013E2800EC40A006E800EE319005C0CE2F3
:10186200800E140A006E800EE419005C03E2020E80
:10187200E56F02D0040EE56F800EE319006E800E54
:101882003C0A005C13E2800E140A006E800EE3191B
:10189200005C0CE2800EE419006E800EEC0A005C23
:1018A20003E2060EE56F02D0080EE56FE5C100F017
:0218B200120022
:1018B400E9C1A6F1E6C1EAF1E7C1EBF1E8C1ECF157
:1018C40035DEE3C1EAF1E4C1EBF1E5C1ECF196DE0A
:1018D400A9C1E1FFAAC1E2FF010EE66EA7C100F0B3
:0A18E400A8C101F026EC01F012008B
:1018EE00090E0B6E1E0E0C6EE40E0D6E0D2EFED737
:0C18FE000C2EFCD70B2EFAD700001200B5
:10190A002E0E0101EA6F840EEB6FBFDE2A0E010173
:10191A00EA6F3F0EEB6FB9DE2D0E0101EA6F0A0E78
:10192A00EB6FB3DE0F0E0101EA6FEBEC05F0010E6F
:10193A0000160F0E0101EA6F880E0010EB6FA5DE8C
:02194A00120089
:10194C00E3C1E6F1E4C1E7F10D0E0101E86F0A0E07
:10195C00E96F35D0E6C1EAF1E7C1EBF1A9DE3AD087
:10196C00E6C1E9FFE7C1EAFFEE5209E0E6C1EAF1A0
:10197C00E7C1EBF19DDE0101E64BE72BF1D72AD055
:10198C00E6C1E9FFE7C1EAFFEE5209E0E6C1EAF180
:10199C00E7C1EBF18DDE0101E64BE72BF1D701013D
:1019AC00E80EEA6F010EEB6F83DEE90E0101EA6FC0
:1019BC00010EEB6F7DDE0ED0060E006E0CD0010119
:1019CC00E551000AC7E0E551010ACAE0E551020AF7
:0819DC00D7E0F2D7006A120007
:1019E4002FD0E4C1EAF1E5C1EBF1E6C1ECF1E7C1C6
:1019F400EDF10BEC06F032D0E4C1EAF1E5C1EBF114
:101A0400E6C1ECF1E7C1EDF194EC07F027D0E4C1B5
:101A1400EAF1E5C1EBF1E6C1ECF1E7C1EDF101EC6E
:101A240007F01CD0E4C1EAF1E5C1EBF1E6C1ECF149
:101A3400E7C1EDF186EC06F011D0010E006E0ED078
:101A44000101E351000ACDE0E351010AD5E0E3517D
:0E1A5400020ADDE0E351100AE5E0EFD71200D0
:101A62000101E36B070EE46F010EE56F4FDE01012A
:101A7200E36B020EE46F010EE56F48DE0101E36BDA
:101A8200010EE46FE56B42DE0101E36B870EE46F4A
:101A92001E0EE56F000EE66F5BDE010E0101E36FC5
:101AA200800EE46F250EE56F000EE66FE76F99DF9B
:041AB2001DDF120022
:101AB6000900F5CFE6FF0006FBE10106F9E1120099
:101AC600130E0101E36F1E0EE46F000EE56F730E39
:101AD600E66F1E0EE76F000EE86F400EE96FE7DE59
:101AE60003DF10DF720E0101E36F010EE46F020ED9
:101AF600E56F29DF5C0E0101E36F010EE46F020E54
:101B0600E56F21DF460E0101E36F010EE46F020E61
:101B1600E56F19DF2C0E0101E36F010EE46F020E73
:101B2600E56F11DF950E0101E36F000EE46F020E03
:081B3600E56F09DFD9DE1200A2
:101B3E00E0DD00C08DF12EDE00C08CF1CFDD8D51C9
:101B4E00010A16E10001D651000A12E1010ED66F0C
:101B5E00C10E0101E36F000EE46F020EE56FEFDEC2
:101B6E00AB0E0101E36F000EE46F020EE56FE7DED0
:101B7E0001018D51000A05E10001D651010AD8B4C8
:101B8E00D66B0001945101018C19D8B478D050D085
:101B9E003F0EE36F000EE46F020EE56FD0DE64D0F1
:101BAE002A0E0101E36F000EE46F020EE56FC7DE31
:101BBE005BD0150E0101E36F000EE46F020EE56FB0
:101BCE00BEDE52D07F0E0101E36F000EE46F020EF7
:101BDE00E56FB5DE49D06A0E0101E36F000EE46FCA
:101BEE00020EE56FACDE40D0550E0101E36F000E24
:101BFE00E46F020EE56FA3DE37D0010E0101E36F35
:101C0E00010EE46F020EE56F9ADE2ED0EC0E01018E
:101C1E00E36F000EE46F020EE56F91DE25D0D70E56
:101C2E000101E36F000EE46F020EE56F88DE1CD03B
:101C3E0001018C51000AACE08C51010AB1E08C51CB
:101C4E00020AB7E08C51030ABDE08C51040AC3E0CE
:101C5E008C51050AC9E08C51060ACFE08C51070A57
:101C6E00D5E08C51080ADBE00101160EE36F010E80
:101C7E00E46F020EE56F63DE8CC194F031DE12006C
:0E1C8E0046EC0FF0E7DE18DF53DFFED7FFD77E
:101E8C0010EE15F0770E006E020E016E9C0EF66EC3
:0E1E9C001C0EF76E000EF86E5BEC0DF01200DF
:101C9C00202020202020546F702D526967687420FA
:051CAC002020202000B3
:101CB100202020202020202020546F702020202050
:051CC10020202020009E
:101CC60020202020537461727420706F73697469C8
:061CD6006F6E20202000CB
:101CDC002020202020202020426F74746F6D202043
:051CEC00202020200073
:101CF1002020202020426F74746F6D2D5269676817
:051D0100742020200009
:101D0600202020202020202052696768742020206F
:051D1600202020200048
:011D1B0001C6
:101D1C002D2D2D2D2D2D2D2D2D2D2D2D2D2D2D2DE7
:061D2C002D2D2D2D2D00D0
:101D32002D2D2D2D2D2D2D2D2D2D2D2D2D2D2D2DD1
:061D42002D2D2D2D2D00BA
:101D48002020427574746F6E2069732070726573F9
:051D580073656420002A
:011D5D000184
:101D5E0020202020202020546F702D4C656674208A
:051D6E002020202000F0
:101D73002020202020202020204C65667420202055
:051D83002020202000DB
:101D88002020202020426F74746F6D2D4C6566747E
:051D98002020202000C6
:101D9D002D2D2D2D2D2D2D2D2D2D2D2D2D2D2D2D66
:061DAD002D2D2D2D2D004F
:101DB300202020204A6F79737469636B20436C6918
:061DC300636B20202000EC
:041DC9000000000016
:101DCD002D2D2D2D2D2D2D2D2D2D2D2D2D2D2D2D36
:061DDD002D2D2D2D2D001F
:101DE30020202020436F6E66696775726174696F86
:061DF3006E2020202000FC
:101DF9002D2D2D2D2D2D2D2D2D2D2D2D2D2D2D2D0A
:061E09002D2D2D2D2D00F2
:041E0F0000000000CF
:101E1300980100028A0100025E01000234010002FF
:101E2300260100025001000242010002A601000245
:101E330008020002FA010002240200021602000254
:101E43007E020000BA020000B0020000A6020000F9
:101E53005A0300005003000046030000780300000B
:101E63006E030000640300001E030000140300005F
:101E730092050000EE060000BE0700004E04FA01C2
:041E83008C03FA01D1
:041E8700A086010030
:020000040030CA
:0E00000015137F7CF98B91FFFFC0FFE0FF40DE
:00000001FF
